{
	"data": {
		"bytecode": {
			"linkReferences": {},
			"object": "608060405260385f553480156012575f80fd5b5060b780601e5f395ff3fe6080604052348015600e575f80fd5b5060043610603a575f3560e01c80632e64cec114603e578063471f7cdf1460535780636057361d14605a575b5f80fd5b5f545b60405190815260200160405180910390f35b60415f5481565b60696065366004606b565b5f55565b005b5f60208284031215607a575f80fd5b503591905056fea2646970667358221220674f95daa53d603196ad37d159dfedef6890922f1d9d4acb02fe6d2deafe778b64736f6c634300081a0033",
			"opcodes": "PUSH1 0x80 PUSH1 0x40 MSTORE PUSH1 0x38 PUSH0 SSTORE CALLVALUE DUP1 ISZERO PUSH1 0x12 JUMPI PUSH0 DUP1 REVERT JUMPDEST POP PUSH1 0xB7 DUP1 PUSH1 0x1E PUSH0 CODECOPY PUSH0 RETURN INVALID PUSH1 0x80 PUSH1 0x40 MSTORE CALLVALUE DUP1 ISZERO PUSH1 0xE JUMPI PUSH0 DUP1 REVERT JUMPDEST POP PUSH1 0x4 CALLDATASIZE LT PUSH1 0x3A JUMPI PUSH0 CALLDATALOAD PUSH1 0xE0 SHR DUP1 PUSH4 0x2E64CEC1 EQ PUSH1 0x3E JUMPI DUP1 PUSH4 0x471F7CDF EQ PUSH1 0x53 JUMPI DUP1 PUSH4 0x6057361D EQ PUSH1 0x5A JUMPI JUMPDEST PUSH0 DUP1 REVERT JUMPDEST PUSH0 SLOAD JUMPDEST PUSH1 0x40 MLOAD SWAP1 DUP2 MSTORE PUSH1 0x20 ADD PUSH1 0x40 MLOAD DUP1 SWAP2 SUB SWAP1 RETURN JUMPDEST PUSH1 0x41 PUSH0 SLOAD DUP2 JUMP JUMPDEST PUSH1 0x69 PUSH1 0x65 CALLDATASIZE PUSH1 0x4 PUSH1 0x6B JUMP JUMPDEST PUSH0 SSTORE JUMP JUMPDEST STOP JUMPDEST PUSH0 PUSH1 0x20 DUP3 DUP5 SUB SLT ISZERO PUSH1 0x7A JUMPI PUSH0 DUP1 REVERT JUMPDEST POP CALLDATALOAD SWAP2 SWAP1 POP JUMP INVALID LOG2 PUSH5 0x6970667358 0x22 SLT KECCAK256 PUSH8 0x4F95DAA53D603196 0xAD CALLDATACOPY 0xD1 MSIZE 0xDF 0xED 0xEF PUSH9 0x90922F1D9D4ACB02FE PUSH14 0x2DEAFE778B64736F6C634300081A STOP CALLER "
		},
		"gasEstimates": {
			"creation": {
				"codeDepositCost": "36600",
				"executionCost": "22190",
				"totalCost": "58790"
			},
			"external": {
				"favoriteNumber()": "2281",
				"retrieve()": "2245",
				"store(uint256)": "22331"
			}
		},
		"methodIdentifiers": {
			"favoriteNumber()": "471f7cdf",
			"retrieve()": "2e64cec1",
			"store(uint256)": "6057361d"
		}
	},
	"abi": [
		{
			"inputs": [],
			"name": "favoriteNumber",
			"outputs": [
				{
					"internalType": "uint256",
					"name": "",
					"type": "uint256"
				}
			],
			"stateMutability": "view",
			"type": "function"
		},
		{
			"inputs": [],
			"name": "retrieve",
			"outputs": [
				{
					"internalType": "uint256",
					"name": "",
					"type": "uint256"
				}
			],
			"stateMutability": "view",
			"type": "function"
		},
		{
			"inputs": [
				{
					"internalType": "uint256",
					"name": "_favoriteNumber",
					"type": "uint256"
				}
			],
			"name": "store",
			"outputs": [],
			"stateMutability": "nonpayable",
			"type": "function"
		}
	]
}